{
  "_format": "hh-sol-artifact-1",
  "contractName": "LearnERC20",
  "sourceName": "contracts/LearnERC20.sol",
  "abi": [
    {
      "inputs": [
        {
          "internalType": "address",
          "name": "_tokenAddress",
          "type": "address"
        }
      ],
      "stateMutability": "nonpayable",
      "type": "constructor"
    },
    {
      "anonymous": false,
      "inputs": [
        {
          "indexed": true,
          "internalType": "address",
          "name": "user",
          "type": "address"
        },
        {
          "indexed": false,
          "internalType": "uint256",
          "name": "_tokenAmount",
          "type": "uint256"
        }
      ],
      "name": "DepositSuccesful",
      "type": "event"
    },
    {
      "anonymous": false,
      "inputs": [
        {
          "indexed": true,
          "internalType": "address",
          "name": "user",
          "type": "address"
        },
        {
          "indexed": true,
          "internalType": "address",
          "name": "to",
          "type": "address"
        },
        {
          "indexed": false,
          "internalType": "uint256",
          "name": "_tokenAmount",
          "type": "uint256"
        }
      ],
      "name": "TransferSuccessful",
      "type": "event"
    },
    {
      "anonymous": false,
      "inputs": [
        {
          "indexed": true,
          "internalType": "address",
          "name": "user",
          "type": "address"
        },
        {
          "indexed": false,
          "internalType": "uint256",
          "name": "_tokenAmount",
          "type": "uint256"
        }
      ],
      "name": "WithDrawalSuccessful",
      "type": "event"
    },
    {
      "inputs": [
        {
          "internalType": "uint256",
          "name": "_tokenAmount",
          "type": "uint256"
        },
        {
          "internalType": "address",
          "name": "_to",
          "type": "address"
        }
      ],
      "name": "depositForAnotherUser",
      "outputs": [],
      "stateMutability": "nonpayable",
      "type": "function"
    },
    {
      "inputs": [
        {
          "internalType": "uint256",
          "name": "_tokenAmount",
          "type": "uint256"
        },
        {
          "internalType": "address",
          "name": "_to",
          "type": "address"
        }
      ],
      "name": "depositForAnotheruserWithin",
      "outputs": [],
      "stateMutability": "nonpayable",
      "type": "function"
    },
    {
      "inputs": [
        {
          "internalType": "uint256",
          "name": "_tokenAmount",
          "type": "uint256"
        }
      ],
      "name": "depositToken",
      "outputs": [],
      "stateMutability": "nonpayable",
      "type": "function"
    },
    {
      "inputs": [
        {
          "internalType": "address",
          "name": "_user",
          "type": "address"
        }
      ],
      "name": "getAnybalance",
      "outputs": [
        {
          "internalType": "uint256",
          "name": "",
          "type": "uint256"
        }
      ],
      "stateMutability": "view",
      "type": "function"
    },
    {
      "inputs": [],
      "name": "getContractbalance",
      "outputs": [
        {
          "internalType": "uint256",
          "name": "",
          "type": "uint256"
        }
      ],
      "stateMutability": "view",
      "type": "function"
    },
    {
      "inputs": [],
      "name": "getMybalance",
      "outputs": [
        {
          "internalType": "uint256",
          "name": "",
          "type": "uint256"
        }
      ],
      "stateMutability": "view",
      "type": "function"
    },
    {
      "inputs": [
        {
          "internalType": "uint256",
          "name": "_amt",
          "type": "uint256"
        }
      ],
      "name": "ownerWithdraw",
      "outputs": [],
      "stateMutability": "nonpayable",
      "type": "function"
    },
    {
      "inputs": [
        {
          "internalType": "uint256",
          "name": "_tokenAmount",
          "type": "uint256"
        },
        {
          "internalType": "address",
          "name": "_to",
          "type": "address"
        }
      ],
      "name": "transferToken",
      "outputs": [],
      "stateMutability": "nonpayable",
      "type": "function"
    },
    {
      "inputs": [
        {
          "internalType": "uint256",
          "name": "_tokenAmount",
          "type": "uint256"
        }
      ],
      "name": "withdrawToken",
      "outputs": [],
      "stateMutability": "nonpayable",
      "type": "function"
    }
  ],
  "bytecode": "0x60806040523480156200001157600080fd5b5060405162001c4938038062001c49833981810160405281019062000037919062000129565b336000806101000a81548173ffffffffffffffffffffffffffffffffffffffff021916908373ffffffffffffffffffffffffffffffffffffffff16021790555080600160006101000a81548173ffffffffffffffffffffffffffffffffffffffff021916908373ffffffffffffffffffffffffffffffffffffffff160217905550506200015b565b600080fd5b600073ffffffffffffffffffffffffffffffffffffffff82169050919050565b6000620000f182620000c4565b9050919050565b6200010381620000e4565b81146200010f57600080fd5b50565b6000815190506200012381620000f8565b92915050565b600060208284031215620001425762000141620000bf565b5b6000620001528482850162000112565b91505092915050565b611ade806200016b6000396000f3fe608060405234801561001057600080fd5b50600436106100935760003560e01c806350baa6221161006657806350baa6221461010a5780635d335877146101265780636215be7714610144578063bad4259014610160578063edc30abe1461017c57610093565b8063295b7cfe1461009857806333f707d1146100b457806334097bc0146100d05780633901984b146100ee575b600080fd5b6100b260048036038101906100ad91906112af565b6101ac565b005b6100ce60048036038101906100c991906112ef565b61043f565b005b6100d861066f565b6040516100e5919061132b565b60405180910390f35b610108600480360381019061010391906112af565b6107a0565b005b610124600480360381019061011f91906112ef565b610984565b005b61012e610c06565b60405161013b919061132b565b60405180910390f35b61015e600480360381019061015991906112ef565b610c4d565b005b61017a600480360381019061017591906112af565b610ebe565b005b61019660048036038101906101919190611346565b61113f565b6040516101a3919061132b565b60405180910390f35b600082036101ef576040517f08c379a00000000000000000000000000000000000000000000000000000000081526004016101e6906113d0565b60405180910390fd5b600073ffffffffffffffffffffffffffffffffffffffff168173ffffffffffffffffffffffffffffffffffffffff160361025e576040517f08c379a00000000000000000000000000000000000000000000000000000000081526004016102559061143c565b60405180910390fd5b6000600160009054906101000a900473ffffffffffffffffffffffffffffffffffffffff1673ffffffffffffffffffffffffffffffffffffffff166370a08231336040518263ffffffff1660e01b81526004016102bb919061146b565b602060405180830381865afa1580156102d8573d6000803e3d6000fd5b505050506040513d601f19601f820116820180604052508101906102fc919061149b565b905082811015610341576040517f08c379a00000000000000000000000000000000000000000000000000000000081526004016103389061153a565b60405180910390fd5b600160009054906101000a900473ffffffffffffffffffffffffffffffffffffffff1673ffffffffffffffffffffffffffffffffffffffff166323b872dd3330866040518463ffffffff1660e01b81526004016103a09392919061155a565b6020604051808303816000875af11580156103bf573d6000803e3d6000fd5b505050506040513d601f19601f820116820180604052508101906103e391906115c9565b5082600260008473ffffffffffffffffffffffffffffffffffffffff1673ffffffffffffffffffffffffffffffffffffffff16815260200190815260200160002060008282546104339190611625565b92505081905550505050565b3373ffffffffffffffffffffffffffffffffffffffff1660008054906101000a900473ffffffffffffffffffffffffffffffffffffffff1673ffffffffffffffffffffffffffffffffffffffff16146104cd576040517f08c379a00000000000000000000000000000000000000000000000000000000081526004016104c4906116a5565b60405180910390fd5b6000600160009054906101000a900473ffffffffffffffffffffffffffffffffffffffff1673ffffffffffffffffffffffffffffffffffffffff166370a08231306040518263ffffffff1660e01b815260040161052a919061146b565b602060405180830381865afa158015610547573d6000803e3d6000fd5b505050506040513d601f19601f8201168201806040525081019061056b919061149b565b116105ab576040517f08c379a00000000000000000000000000000000000000000000000000000000081526004016105a290611711565b60405180910390fd5b600160009054906101000a900473ffffffffffffffffffffffffffffffffffffffff1673ffffffffffffffffffffffffffffffffffffffff1663a9059cbb60008054906101000a900473ffffffffffffffffffffffffffffffffffffffff16836040518363ffffffff1660e01b8152600401610628929190611731565b6020604051808303816000875af1158015610647573d6000803e3d6000fd5b505050506040513d601f19601f8201168201806040525081019061066b91906115c9565b5050565b60003373ffffffffffffffffffffffffffffffffffffffff1660008054906101000a900473ffffffffffffffffffffffffffffffffffffffff1673ffffffffffffffffffffffffffffffffffffffff16146106ff576040517f08c379a00000000000000000000000000000000000000000000000000000000081526004016106f6906116a5565b60405180910390fd5b600160009054906101000a900473ffffffffffffffffffffffffffffffffffffffff1673ffffffffffffffffffffffffffffffffffffffff166370a08231306040518263ffffffff1660e01b815260040161075a919061146b565b602060405180830381865afa158015610777573d6000803e3d6000fd5b505050506040513d601f19601f8201168201806040525081019061079b919061149b565b905090565b600082036107e3576040517f08c379a00000000000000000000000000000000000000000000000000000000081526004016107da906113d0565b60405180910390fd5b600073ffffffffffffffffffffffffffffffffffffffff168173ffffffffffffffffffffffffffffffffffffffff1603610852576040517f08c379a00000000000000000000000000000000000000000000000000000000081526004016108499061143c565b60405180910390fd5b81600260003373ffffffffffffffffffffffffffffffffffffffff1673ffffffffffffffffffffffffffffffffffffffff1681526020019081526020016000205410156108d4576040517f08c379a00000000000000000000000000000000000000000000000000000000081526004016108cb906117a6565b60405180910390fd5b81600260003373ffffffffffffffffffffffffffffffffffffffff1673ffffffffffffffffffffffffffffffffffffffff168152602001908152602001600020600082825461092391906117c6565b9250508190555081600260008373ffffffffffffffffffffffffffffffffffffffff1673ffffffffffffffffffffffffffffffffffffffff16815260200190815260200160002060008282546109799190611625565b925050819055505050565b600073ffffffffffffffffffffffffffffffffffffffff163373ffffffffffffffffffffffffffffffffffffffff16036109f3576040517f08c379a00000000000000000000000000000000000000000000000000000000081526004016109ea90611846565b60405180910390fd5b60008103610a36576040517f08c379a0000000000000000000000000000000000000000000000000000000008152600401610a2d906118b2565b60405180910390fd5b6000600260003373ffffffffffffffffffffffffffffffffffffffff1673ffffffffffffffffffffffffffffffffffffffff16815260200190815260200160002054905081811015610abd576040517f08c379a0000000000000000000000000000000000000000000000000000000008152600401610ab490611944565b60405180910390fd5b81600260003373ffffffffffffffffffffffffffffffffffffffff1673ffffffffffffffffffffffffffffffffffffffff1681526020019081526020016000206000828254610b0c91906117c6565b92505081905550600160009054906101000a900473ffffffffffffffffffffffffffffffffffffffff1673ffffffffffffffffffffffffffffffffffffffff1663a9059cbb33846040518363ffffffff1660e01b8152600401610b70929190611731565b6020604051808303816000875af1158015610b8f573d6000803e3d6000fd5b505050506040513d601f19601f82011682018060405250810190610bb391906115c9565b503373ffffffffffffffffffffffffffffffffffffffff167fd353095f108e483c64e3e8aa5503e81a9b1f82f8ea1a8eb3cfd1b4bd775d8eba83604051610bfa919061132b565b60405180910390a25050565b6000600260003373ffffffffffffffffffffffffffffffffffffffff1673ffffffffffffffffffffffffffffffffffffffff16815260200190815260200160002054905090565b60008111610c90576040517f08c379a0000000000000000000000000000000000000000000000000000000008152600401610c87906119b0565b60405180910390fd5b6000600160009054906101000a900473ffffffffffffffffffffffffffffffffffffffff1673ffffffffffffffffffffffffffffffffffffffff166370a08231336040518263ffffffff1660e01b8152600401610ced919061146b565b602060405180830381865afa158015610d0a573d6000803e3d6000fd5b505050506040513d601f19601f82011682018060405250810190610d2e919061149b565b905081811015610d73576040517f08c379a0000000000000000000000000000000000000000000000000000000008152600401610d6a90611a1c565b60405180910390fd5b600160009054906101000a900473ffffffffffffffffffffffffffffffffffffffff1673ffffffffffffffffffffffffffffffffffffffff166323b872dd3330856040518463ffffffff1660e01b8152600401610dd29392919061155a565b6020604051808303816000875af1158015610df1573d6000803e3d6000fd5b505050506040513d601f19601f82011682018060405250810190610e1591906115c9565b5081600260003373ffffffffffffffffffffffffffffffffffffffff1673ffffffffffffffffffffffffffffffffffffffff1681526020019081526020016000206000828254610e659190611625565b925050819055503373ffffffffffffffffffffffffffffffffffffffff167f4e2e0c3d07fd9ebe4d0aaac227643a1206bf5684b29e146988c04b72d26a720b83604051610eb2919061132b565b60405180910390a25050565b600073ffffffffffffffffffffffffffffffffffffffff163373ffffffffffffffffffffffffffffffffffffffff1603610f2d576040517f08c379a0000000000000000000000000000000000000000000000000000000008152600401610f2490611846565b60405180910390fd5b60008203610f70576040517f08c379a0000000000000000000000000000000000000000000000000000000008152600401610f67906118b2565b60405180910390fd5b600073ffffffffffffffffffffffffffffffffffffffff168173ffffffffffffffffffffffffffffffffffffffff1603610fdf576040517f08c379a0000000000000000000000000000000000000000000000000000000008152600401610fd690611a88565b60405180910390fd5b81600260003373ffffffffffffffffffffffffffffffffffffffff1673ffffffffffffffffffffffffffffffffffffffff168152602001908152602001600020600082825461102e91906117c6565b92505081905550600160009054906101000a900473ffffffffffffffffffffffffffffffffffffffff1673ffffffffffffffffffffffffffffffffffffffff1663a9059cbb82846040518363ffffffff1660e01b8152600401611092929190611731565b6020604051808303816000875af11580156110b1573d6000803e3d6000fd5b505050506040513d601f19601f820116820180604052508101906110d591906115c9565b508073ffffffffffffffffffffffffffffffffffffffff163373ffffffffffffffffffffffffffffffffffffffff167fd6d3eb25a413c05d8107fc49deb2789bef7f612582b2482804c0b0423b6638ee84604051611133919061132b565b60405180910390a35050565b60003373ffffffffffffffffffffffffffffffffffffffff1660008054906101000a900473ffffffffffffffffffffffffffffffffffffffff1673ffffffffffffffffffffffffffffffffffffffff16146111cf576040517f08c379a00000000000000000000000000000000000000000000000000000000081526004016111c6906116a5565b60405180910390fd5b600260008373ffffffffffffffffffffffffffffffffffffffff1673ffffffffffffffffffffffffffffffffffffffff168152602001908152602001600020549050919050565b600080fd5b6000819050919050565b61122e8161121b565b811461123957600080fd5b50565b60008135905061124b81611225565b92915050565b600073ffffffffffffffffffffffffffffffffffffffff82169050919050565b600061127c82611251565b9050919050565b61128c81611271565b811461129757600080fd5b50565b6000813590506112a981611283565b92915050565b600080604083850312156112c6576112c5611216565b5b60006112d48582860161123c565b92505060206112e58582860161129a565b9150509250929050565b60006020828403121561130557611304611216565b5b60006113138482850161123c565b91505092915050565b6113258161121b565b82525050565b6000602082019050611340600083018461131c565b92915050565b60006020828403121561135c5761135b611216565b5b600061136a8482850161129a565b91505092915050565b600082825260208201905092915050565b7f43616e2774206465706f736974207a65726f2062616c616e6365730000000000600082015250565b60006113ba601b83611373565b91506113c582611384565b602082019050919050565b600060208201905081810360008301526113e9816113ad565b9050919050565b7f43616e2774206465706f73697420746f20616e2061646472657373207a65726f600082015250565b6000611426602083611373565b9150611431826113f0565b602082019050919050565b6000602082019050818103600083015261145581611419565b9050919050565b61146581611271565b82525050565b6000602082019050611480600083018461145c565b92915050565b60008151905061149581611225565b92915050565b6000602082840312156114b1576114b0611216565b5b60006114bf84828501611486565b91505092915050565b7f596f752063616e2774206465706f736974206d6f7265207468616e20796f752060008201527f6861766500000000000000000000000000000000000000000000000000000000602082015250565b6000611524602483611373565b915061152f826114c8565b604082019050919050565b6000602082019050818103600083015261155381611517565b9050919050565b600060608201905061156f600083018661145c565b61157c602083018561145c565b611589604083018461131c565b949350505050565b60008115159050919050565b6115a681611591565b81146115b157600080fd5b50565b6000815190506115c38161159d565b92915050565b6000602082840312156115df576115de611216565b5b60006115ed848285016115b4565b91505092915050565b7f4e487b7100000000000000000000000000000000000000000000000000000000600052601160045260246000fd5b60006116308261121b565b915061163b8361121b565b9250828201905080821115611653576116526115f6565b5b92915050565b7f596f7520617265206e6f7420417574686f72697a650000000000000000000000600082015250565b600061168f601583611373565b915061169a82611659565b602082019050919050565b600060208201905081810360008301526116be81611682565b9050919050565b7f54686520636f6e747261637420746f6b656e206861732066696e697368656400600082015250565b60006116fb601f83611373565b9150611706826116c5565b602082019050919050565b6000602082019050818103600083015261172a816116ee565b9050919050565b6000604082019050611746600083018561145c565b611753602083018461131c565b9392505050565b7f596f7520646f6e2774206861766520656e6f75676820746f6b656e0000000000600082015250565b6000611790601b83611373565b915061179b8261175a565b602082019050919050565b600060208201905081810360008301526117bf81611783565b9050919050565b60006117d18261121b565b91506117dc8361121b565b92508282039050818111156117f4576117f36115f6565b5b92915050565b7f7a65726f20416464726573732064657465637465640000000000000000000000600082015250565b6000611830601583611373565b915061183b826117fa565b602082019050919050565b6000602082019050818103600083015261185f81611823565b9050919050565b7f63616e27742077697468647261772061207a65726f20616d6f756e7400000000600082015250565b600061189c601c83611373565b91506118a782611866565b602082019050919050565b600060208201905081810360008301526118cb8161188f565b9050919050565b7f596f752063616e2774207769746864726177206d6f7265207468616e20796f7560008201527f2068617665000000000000000000000000000000000000000000000000000000602082015250565b600061192e602583611373565b9150611939826118d2565b604082019050919050565b6000602082019050818103600083015261195d81611921565b9050919050565b7f43616e2774206465706f7369742061207a65726f20546f6b656e000000000000600082015250565b600061199a601a83611373565b91506119a582611964565b602082019050919050565b600060208201905081810360008301526119c98161198d565b9050919050565b7f496e73756666696369656e7420546f6b656e62616c616e636500000000000000600082015250565b6000611a06601983611373565b9150611a11826119d0565b602082019050919050565b60006020820190508181036000830152611a35816119f9565b9050919050565b7f43616e2774207472616e7366657220746f2061646472657373207a65726f2121600082015250565b6000611a72602083611373565b9150611a7d82611a3c565b602082019050919050565b60006020820190508181036000830152611aa181611a65565b905091905056fea2646970667358221220c7f36732863cae3e5b1dd6f6ecef4953ef870305e3a04b5cd7991870ed0c3e0e64736f6c63430008180033",
  "linkReferences": {},
  "deployedLinkReferences": {}
}